S01500004C61626F7261746F72696F5F342E73726563FE
S11300000C9434000C9451000C9451000C94510045
S11300100C94D5000C9451000C9451000C94510094
S11300200C9451000C9451000C9451000C94510008
S11300300C9451000C9451000C9451000C945100F8
S11300400C94FE000C9451000C9451000C9451003B
S11300500C9451000C94B8000C9451000C94510071
S11300600C9451000C94510011241FBECFEFD8E022
S1130070DEBFCDBF11E0A0E0B1E0E4E5F2E002C0F4
S113008005900D92A031B107D9F721E0A0E1B1E0CC
S113009001C01D92A631B207E1F70E947F000C94C3
S11300A028010C940000E1E6F0E080E8808384E01D
S11300B080838FEF8AB91BB81092C1008FE087B993
S11300C080E388B99FE394B915B892E090936800EF
S11300D080936C000895ECE7F0E0108280818666DE
S11300E0808384E880937A00089515BC85B5836085
S11300F085BD81E080936E0084E686BD0895F89402
S11301000E9453000E946B000E947500EAE7F0E031
S1130110808188648083789488B1837F88B9809152
S11301201501882369F0E0911201E295EF70F0E087
S1130130E050FF4F80818BB988B1846088B90AC0D0
S1130140E0911101F0E0E050FF4F80818BB988B15C
S1130150886088B99091130180911401891720F463
S11301608BB180688BB9D8CF8BB18F778BB9D4CF53
S11301701F920F920FB60F9211248F93EF93FF9358
S1130180E9E7F0E08081807F8093120180818F70A5
S113019080931101808180931301FF91EF918F91DE
S11301A00F900FBE0F901F9018951F920F920FB6CD
S11301B00F9211248F9386B18071359906C0809176
S11301C014018F5F8093140107C0811105C08091D1
S11301D01401815080931401809114018F7385B9A7
S11301E08091140182958695869583708C6F88B969
S11301F08F910F900FBE0F901F9018951F920F9222
S11302000FB60F9211248F939F93EF93FF9384E67D
S113021086BD9091150181E0892780931501809115
S113022010018F5F80931001809110018A3039F49E
S113023010921001EAE7F0E0808180648083FF91EE
S1130240EF919F918F910F900FBE0F901F90189573
S1070250F894FFCF4C
S11302543F065B4F666D7D077F6F777C395E7971EE
S9030000FC
