S01500004C61626F7261746F72696F5F342E73726563FE
S11300000C9434000C9446000C9446000C94460066
S11300100C947A000C9446000C9446000C94460010
S11300200C9446000C9446000C9446000C94460034
S11300300C9446000C9446000C9446000C94460024
S11300400C9446000C9446000C9446000C94460014
S11300500C9446000C9465000C9446000C944600E5
S11300600C9446000C94460011241FBECFEFD8E038
S1130070DEBFCDBF21E0A0E0B1E001C01D92A13000
S1130080B207E1F70E9460000C94A6000C940000F3
S1130090E1E6F0E080E8808384E080838FEF8AB932
S11300A01BB81092C1008FE087B980E388B99FE341
S11300B094B915B892E09093680080936C00089509
S11300C0F8940E9448007894FFCF1F920F920FB6C5
S11300D00F9211248F93EF93FF93EAE7F0E080816E
S11300E080648083FF91EF918F910F900FBE0F90EA
S11300F01F9018951F920F920FB60F9211248F9391
S11301009F9396B186B1807294FD06C080910001E0
S11301108F5F8093000107C0811105C080910001A9
S1130120815080930001809100018F7385B9809183
S1130130000182958695869583708C6F88B99F910E
S11301408F910F900FBE0F901F901895F894FFCFCA
S9030000FC
